:020000001628C0
:0E0006008312031324088A00230882000800D6
:1000140003208A110A128000840AA30A0319A40A7D
:08002400F003031D0A28080087
:10002C0083120313A001A101A201073083169F00C4
:10003C000F308500860187018801831288018701B2
:10004C008601051CA128081488160230A200013074
:10005C00A1008030FF3AF0008030210670020318B6
:10006C006128210887008030FF3AF000803022069A
:10007C00700203185D28220886002208033A031D2B
:10008C004D282108003A031D4D28881208160B3004
:10009C00FB002630FC005D30FD00FD0B5328FC0BF3
:1000AC005328FB0B532800000000A2033928093009
:1000BC00A200A1032F280812081005186628A128F1
:1000CC00081588150330A2000230A1008030FF3AD9
:1000DC00F00080302106700203189E28210887004A
:1000EC008030FF3AF00080302206700203189A2804
:1000FC00220886002208033A031D8A282108003AA8
:10010C00031D8A28081188140B30FB002630FC00D4
:10011C005D30FD00FD0B9028FC0B9028FB0B90280C
:10012C0000000000A20376280930A200A1036C286D
:10013C008810881127280518E528851CA928213046
:10014C008800A001E428051DE0282008003A031DC2
:10015C00B22811308800B4280A308800A101803000
:10016C00FF3AF0008030210670020318DD282108C8
:10017C0087000330A2008030FF3AF0008030220666
:10018C0070020318DB28220886000B30FB00263097
:10019C00FC005D30FD00FD0BD128FC0BD128FB0BC6
:1001AC00D12800000000A203C128A103B5288810A3
:1001BC000812E4280C3088000130A000A128880126
:0401CC002728E728D1
:02400E004A2F37
:00000001FF
